{"abi":[{"type":"constructor","inputs":[{"name":"_callbreaker","type":"address","internalType":"address"},{"name":"_disbursalContract","type":"address","internalType":"address"},{"name":"_owner","type":"address","internalType":"address"}],"stateMutability":"nonpayable"},{"type":"function","name":"assertFutureCallTo","inputs":[{"name":"callObj","type":"tuple","internalType":"struct CallObject","components":[{"name":"amount","type":"uint256","internalType":"uint256"},{"name":"gas","type":"uint256","internalType":"uint256"},{"name":"addr","type":"address","internalType":"address"},{"name":"callvalue","type":"bytes","internalType":"bytes"}]},{"name":"hintdex","type":"uint256","internalType":"uint256"}],"outputs":[],"stateMutability":"view"},{"type":"function","name":"assertFutureCallTo","inputs":[{"name":"callObj","type":"tuple","internalType":"struct CallObject","components":[{"name":"amount","type":"uint256","internalType":"uint256"},{"name":"gas","type":"uint256","internalType":"uint256"},{"name":"addr","type":"address","internalType":"address"},{"name":"callvalue","type":"bytes","internalType":"bytes"}]}],"outputs":[],"stateMutability":"view"},{"type":"function","name":"assertNextCallTo","inputs":[{"name":"callObj","type":"tuple","internalType":"struct CallObject","components":[{"name":"amount","type":"uint256","internalType":"uint256"},{"name":"gas","type":"uint256","internalType":"uint256"},{"name":"addr","type":"address","internalType":"address"},{"name":"callvalue","type":"bytes","internalType":"bytes"}]}],"outputs":[],"stateMutability":"view"},{"type":"function","name":"backrunBlocker","inputs":[],"outputs":[],"stateMutability":"view"},{"type":"function","name":"callbreaker","inputs":[],"outputs":[{"name":"","type":"address","internalType":"contract CallBreaker"}],"stateMutability":"view"},{"type":"function","name":"callbreakerAddress","inputs":[],"outputs":[{"name":"","type":"address","internalType":"address"}],"stateMutability":"view"},{"type":"function","name":"disbursalContract","inputs":[],"outputs":[{"name":"","type":"address","internalType":"contract IDisbursalContract"}],"stateMutability":"view"},{"type":"function","name":"disburseKITNs","inputs":[],"outputs":[],"stateMutability":"nonpayable"},{"type":"function","name":"frontrunBlocker","inputs":[],"outputs":[],"stateMutability":"view"},{"type":"function","name":"getCurrentExecutingPair","inputs":[],"outputs":[{"name":"","type":"tuple","internalType":"struct CallObject","components":[{"name":"amount","type":"uint256","internalType":"uint256"},{"name":"gas","type":"uint256","internalType":"uint256"},{"name":"addr","type":"address","internalType":"address"},{"name":"callvalue","type":"bytes","internalType":"bytes"}]},{"name":"","type":"tuple","internalType":"struct ReturnObject","components":[{"name":"returnvalue","type":"bytes","internalType":"bytes"}]}],"stateMutability":"view"},{"type":"function","name":"getEthSignedMessageHash","inputs":[{"name":"data","type":"bytes","internalType":"bytes"}],"outputs":[{"name":"","type":"bytes32","internalType":"bytes32"}],"stateMutability":"view"},{"type":"function","name":"getSampleDisbursalData","inputs":[],"outputs":[{"name":"","type":"tuple","internalType":"struct KITNDisburmentScheduler.DisbursalData","components":[{"name":"receivers","type":"address[]","internalType":"address[]"},{"name":"amounts","type":"uint256[]","internalType":"uint256[]"}]}],"stateMutability":"pure"},{"type":"function","name":"owner","inputs":[],"outputs":[{"name":"","type":"address","internalType":"address"}],"stateMutability":"view"},{"type":"function","name":"renounceOwnership","inputs":[],"outputs":[],"stateMutability":"nonpayable"},{"type":"function","name":"setContinue","inputs":[{"name":"_shouldContinue","type":"bool","internalType":"bool"}],"outputs":[],"stateMutability":"nonpayable"},{"type":"function","name":"shouldContinue","inputs":[],"outputs":[{"name":"","type":"bool","internalType":"bool"}],"stateMutability":"view"},{"type":"function","name":"soloExecuteBlocker","inputs":[],"outputs":[],"stateMutability":"view"},{"type":"function","name":"transferOwnership","inputs":[{"name":"newOwner","type":"address","internalType":"address"}],"outputs":[],"stateMutability":"nonpayable"},{"type":"function","name":"verifySignature","inputs":[{"name":"data","type":"bytes","internalType":"bytes"}],"outputs":[],"stateMutability":"view"},{"type":"event","name":"OwnershipTransferred","inputs":[{"name":"previousOwner","type":"address","indexed":true,"internalType":"address"},{"name":"newOwner","type":"address","indexed":true,"internalType":"address"}],"anonymous":false},{"type":"error","name":"AddressZero","inputs":[]},{"type":"error","name":"CallMismatch","inputs":[]},{"type":"error","name":"FutureCallExpected","inputs":[]},{"type":"error","name":"IllegalBackrun","inputs":[]},{"type":"error","name":"IllegalFrontrun","inputs":[]},{"type":"error","name":"NotApproved","inputs":[]},{"type":"error","name":"PortalClosed","inputs":[]},{"type":"error","name":"Unaudited","inputs":[]}],"bytecode":{"object":"0x608060405234801561000f575f80fd5b5060405161196938038061196983398101604081905261002e91610144565b826001600160a01b03811661005657604051639fabe1c160e01b815260040160405180910390fd5b5f80546001600160a01b0319166001600160a01b039290921691909117905561008461007f3390565b6100d8565b600280546001600160a01b038086166001600160a01b03199283161790925560038054928516929091169190911790556001805460ff60a01b1916600160a01b1790556100d0816100d8565b505050610184565b600180546001600160a01b038381166001600160a01b0319831681179093556040519116919082907f8be0079c531659141344cd1fd0a4f28419497f9722a3daafe3b4186f6b6457e0905f90a35050565b80516001600160a01b038116811461013f575f80fd5b919050565b5f805f60608486031215610156575f80fd5b61015f84610129565b925061016d60208501610129565b915061017b60408501610129565b90509250925092565b6117d8806101915f395ff3fe608060405234801561000f575f80fd5b506004361061011c575f3560e01c8063aeec0501116100a9578063ceb527bc1161006e578063ceb527bc14610226578063f2fde38b14610239578063f320d0a91461024c578063f80af9841461025e578063f9aea46614610271575f80fd5b8063aeec0501146101cc578063b2102523146101f0578063b5ba436214610203578063c6a02b7d1461020b578063cd00534714610213575f80fd5b80635dccf4c4116100ef5780635dccf4c414610171578063715018a614610179578063801e0f42146101815780638da5cb5b14610194578063921a62e2146101b9575f80fd5b806306da6b6d146101205780631db72bc91461013557806321a88409146101545780635075e4b214610169575b5f80fd5b61013361012e366004610ecb565b610292565b005b61013d6102b8565b60405161014b929190610f61565b60405180910390f35b61015c6103d7565b60405161014b9190610f98565b61013361043d565b61013361044f565b610133610558565b61013361018f3660046111bf565b610569565b6001546001600160a01b03165b6040516001600160a01b03909116815260200161014b565b6101336101c7366004611200565b6106bf565b6001546101e090600160a01b900460ff1681565b604051901515815260200161014b565b6101336101fe366004611200565b6107fc565b610133610941565b6101336109d1565b6002546101a1906001600160a01b031681565b6003546101a1906001600160a01b031681565b610133610247366004611231565b610b6c565b5f546101a1906001600160a01b031681565b61013361026c36600461124c565b610bea565b61028461027f3660046112b8565b610cf2565b60405190815260200161014b565b61029a610d21565b60018054911515600160a01b0260ff60a01b19909216919091179055565b6102e960405180608001604052805f81526020015f81526020015f6001600160a01b03168152602001606081525090565b6040805160208082018352606082525f8054845163145f1c8960e31b81529451939491936001600160a01b039091169263a2f8e44892600480820193918290030181865afa15801561033d573d5f803e3d5ffd5b505050506040513d601f19601f8201168201806040525081019061036191906112e9565b5f54604051632f7ce47360e21b8152600481018390529192506001600160a01b03169063bdf391cc906024015f60405180830381865afa1580156103a7573d5f803e3d5ffd5b505050506040513d5f823e601f3d908101601f191682016040526103ce91908101906113b2565b92509250509091565b60408051808201825260608082526020820152815160018184018181526080830190945291929091829190816020016020820280368337505050815260408051600180825281830190925260209283019290919080830190803683375050509052919050565b610445610941565b61044d61044f565b565b5f805f9054906101000a90046001600160a01b03166001600160a01b031663a2f8e4486040518163ffffffff1660e01b8152600401602060405180830381865afa15801561049f573d5f803e3d5ffd5b505050506040513d601f19601f820116820180604052508101906104c391906112e9565b5f805460405163631d606160e11b81526004810184905292935090916001600160a01b039091169063c63ac0c290602401602060405180830381865afa15801561050f573d5f803e3d5ffd5b505050506040513d601f19601f8201168201806040525081019061053391906112e9565b905080156105545760405163d1cb360d60e01b815260040160405180910390fd5b5050565b610560610d21565b61044d5f610d7b565b5f805f9054906101000a90046001600160a01b03166001600160a01b031663a2f8e4486040518163ffffffff1660e01b8152600401602060405180830381865afa1580156105b9573d5f803e3d5ffd5b505050506040513d601f19601f820116820180604052508101906105dd91906112e9565b90505f836040516020016105f1919061146f565b60408051808303601f190181529082905280516020909101205f8054630213637b60e51b845260048401879052919350916001600160a01b039091169063426c6f60906024016040805180830381865afa158015610651573d5f803e3d5ffd5b505050506040513d601f19601f820116820180604052508101906106759190611481565b5190508284116106985760405163ab63c58360e01b815260040160405180910390fd5b8181146106b85760405163a7ee168560e01b815260040160405180910390fd5b5050505050565b5f8054604051631ae7330560e11b81526001600160a01b03909116906335ce660a906106ef90859060040161146f565b5f60405180830381865afa158015610709573d5f803e3d5ffd5b505050506040513d5f823e601f3d908101601f191682016040526107309190810190611539565b90505f805f9054906101000a90046001600160a01b03166001600160a01b031663a2f8e4486040518163ffffffff1660e01b8152600401602060405180830381865afa158015610782573d5f803e3d5ffd5b505050506040513d601f19601f820116820180604052508101906107a691906112e9565b90505f5b82518110156107e257818382815181106107c6576107c661156a565b602002602001015111156107da5750505050565b6001016107aa565b5060405163ab63c58360e01b815260040160405180910390fd5b5f805f9054906101000a90046001600160a01b03166001600160a01b031663a2f8e4486040518163ffffffff1660e01b8152600401602060405180830381865afa15801561084c573d5f803e3d5ffd5b505050506040513d601f19601f8201168201806040525081019061087091906112e9565b90505f82604051602001610884919061146f565b60408051601f1981840301815291905280516020909101205f8054919250906001600160a01b031663426c6f606108bc85600161157e565b6040518263ffffffff1660e01b81526004016108da91815260200190565b6040805180830381865afa1580156108f4573d5f803e3d5ffd5b505050506040513d601f19601f820116820180604052508101906109189190611481565b51905081811461093b5760405163a7ee168560e01b815260040160405180910390fd5b50505050565b5f8054906101000a90046001600160a01b03166001600160a01b031663a2f8e4486040518163ffffffff1660e01b8152600401602060405180830381865afa15801561098f573d5f803e3d5ffd5b505050506040513d601f19601f820116820180604052508101906109b391906112e9565b1561044d57604051631efbf1ab60e11b815260040160405180910390fd5b604051704b49544e44697362757273616c4461746160781b60208201525f9060310160408051808303601f19018152908290528051602090910120600254631ce5445760e11b8352600483018290529092505f916001600160a01b03909116906339ca88ae906024015f60405180830381865afa158015610a54573d5f803e3d5ffd5b505050506040513d5f823e601f3d908101601f19168201604052610a7b91908101906115a3565b90505f81806020019051810190610a9291906115d4565b6003548151602083015160405163084c362760e21b81529394506001600160a01b0390921692632130d89c92610acb92916004016116c8565b5f604051808303815f87803b158015610ae2575f80fd5b505af1158015610af4573d5f803e3d5ffd5b505050505f60405180608001604052805f8152602001620f42408152602001306001600160a01b0316815260200184604051602401610b339190611751565b60408051601f198184030181529190526020810180516001600160e01b0316633e02be6160e21b1790529052905061093b816001610569565b610b74610d21565b6001600160a01b038116610bde5760405162461bcd60e51b815260206004820152602660248201527f4f776e61626c653a206e6577206f776e657220697320746865207a65726f206160448201526564647265737360d01b60648201526084015b60405180910390fd5b610be781610d7b565b50565b5f610c2983838080601f0160208091040260200160405190810160405280939291908181526020018383808284375f92019190915250610cf292505050565b90505f604051602001610c539070436c65616e4170705369676e617475726560781b815260110190565b60408051808303601f19018152908290528051602090910120600254631ce5445760e11b8352600483018290529092505f916001600160a01b03909116906339ca88ae906024015f60405180830381865afa158015610cb4573d5f803e3d5ffd5b505050506040513d5f823e601f3d908101601f19168201604052610cdb91908101906115a3565b90505f610ce88483610dcc565b5050505050505050565b5f81604051602001610d049190611763565b604051602081830303815290604052805190602001209050919050565b6001546001600160a01b0316331461044d5760405162461bcd60e51b815260206004820181905260248201527f4f776e61626c653a2063616c6c6572206973206e6f7420746865206f776e65726044820152606401610bd5565b600180546001600160a01b038381166001600160a01b0319831681179093556040519116919082907f8be0079c531659141344cd1fd0a4f28419497f9722a3daafe3b4186f6b6457e0905f90a35050565b5f808251604103610e00576020830151604084015160608501515f1a610df487828585610e0e565b94509450505050610e07565b505f905060025b9250929050565b5f807f7fffffffffffffffffffffffffffffff5d576e7357a4501ddfe92f46681b20a0831115610e4357505f90506003610ec2565b604080515f8082526020820180845289905260ff881692820192909252606081018690526080810185905260019060a0016020604051602081039080840390855afa158015610e94573d5f803e3d5ffd5b5050604051601f1901519150506001600160a01b038116610ebc575f60019250925050610ec2565b91505f90505b94509492505050565b5f60208284031215610edb575f80fd5b81358015158114610eea575f80fd5b9392505050565b5f81518084528060208401602086015e5f602082860101526020601f19601f83011685010191505092915050565b805182526020810151602083015260018060a01b0360408201511660408301525f606082015160806060850152610f596080850182610ef1565b949350505050565b604081525f610f736040830185610f1f565b8281036020840152835160208252610f8e6020830182610ef1565b9695505050505050565b602080825282516040838301528051606084018190525f929190910190829060808501905b80831015610fe85783516001600160a01b031682526020938401936001939093019290910190610fbd565b50602086810151868303601f1901604088015280518084529082019450910191505f905b8082101561102f578351835260208301925060208401935060018201915061100c565b509095945050505050565b634e487b7160e01b5f52604160045260245ffd5b604051608081016001600160401b03811182821017156110705761107061103a565b60405290565b604080519081016001600160401b03811182821017156110705761107061103a565b604051601f8201601f191681016001600160401b03811182821017156110c0576110c061103a565b604052919050565b6001600160a01b0381168114610be7575f80fd5b5f6001600160401b038211156110f4576110f461103a565b50601f01601f191660200190565b5f82601f830112611111575f80fd5b813561112461111f826110dc565b611098565b818152846020838601011115611138575f80fd5b816020850160208301375f918101602001919091529392505050565b5f60808284031215611164575f80fd5b61116c61104e565b82358152602080840135908201529050604082013561118a816110c8565b604082015260608201356001600160401b038111156111a7575f80fd5b6111b384828501611102565b60608301525092915050565b5f80604083850312156111d0575f80fd5b82356001600160401b038111156111e5575f80fd5b6111f185828601611154565b95602094909401359450505050565b5f60208284031215611210575f80fd5b81356001600160401b03811115611225575f80fd5b610f5984828501611154565b5f60208284031215611241575f80fd5b8135610eea816110c8565b5f806020838503121561125d575f80fd5b82356001600160401b03811115611272575f80fd5b8301601f81018513611282575f80fd5b80356001600160401b03811115611297575f80fd5b8560208284010111156112a8575f80fd5b6020919091019590945092505050565b5f602082840312156112c8575f80fd5b81356001600160401b038111156112dd575f80fd5b610f5984828501611102565b5f602082840312156112f9575f80fd5b5051919050565b5f82601f83011261130f575f80fd5b815161131d61111f826110dc565b818152846020838601011115611331575f80fd5b8160208501602083015e5f918101602001919091529392505050565b5f6020828403121561135d575f80fd5b604051602081016001600160401b038111828210171561137f5761137f61103a565b806040525080915082516001600160401b0381111561139c575f80fd5b6113a885828601611300565b8252505092915050565b5f80604083850312156113c3575f80fd5b82516001600160401b038111156113d8575f80fd5b8301608081860312156113e9575f80fd5b6113f161104e565b8151815260208083015190820152604082015161140d816110c8565b604082015260608201516001600160401b0381111561142a575f80fd5b61143687828501611300565b606083015250809350505060208301516001600160401b03811115611459575f80fd5b6114658582860161134d565b9150509250929050565b602081525f610eea6020830184610f1f565b5f6040828403128015611492575f80fd5b5061149b611076565b825181526020928301519281019290925250919050565b5f6001600160401b038211156114ca576114ca61103a565b5060051b60200190565b5f82601f8301126114e3575f80fd5b81516114f161111f826114b2565b8082825260208201915060208360051b860101925085831115611512575f80fd5b602085015b8381101561152f578051835260209283019201611517565b5095945050505050565b5f60208284031215611549575f80fd5b81516001600160401b0381111561155e575f80fd5b610f59848285016114d4565b634e487b7160e01b5f52603260045260245ffd5b8082018082111561159d57634e487b7160e01b5f52601160045260245ffd5b92915050565b5f602082840312156115b3575f80fd5b81516001600160401b038111156115c8575f80fd5b610f5984828501611300565b5f602082840312156115e4575f80fd5b81516001600160401b038111156115f9575f80fd5b82016040818503121561160a575f80fd5b611612611076565b81516001600160401b03811115611627575f80fd5b8201601f81018613611637575f80fd5b805161164561111f826114b2565b8082825260208201915060208360051b850101925088831115611666575f80fd5b6020840193505b82841015611691578351611680816110c8565b82526020938401939091019061166d565b845250505060208201516001600160401b038111156116ae575f80fd5b6116ba868285016114d4565b602083015250949350505050565b604080825283519082018190525f9060208501906060840190835b8181101561170a5783516001600160a01b03168352602093840193909201916001016116e3565b5050838103602080860191909152855180835291810192508501905f5b81811015611745578251845260209384019390920191600101611727565b50919695505050505050565b602081525f610eea6020830184610ef1565b7f19457468657265756d205369676e6564204d6573736167653a0a33320000000081525f82518060208501601c85015e5f9201601c019182525091905056fea2646970667358221220792691db7d51d0e0ed2b9578db3a0a7fb0a28385b0098e3e87cbab89927caf5764736f6c634300081a0033","linkReferences":{}},"methodIdentifiers":{"assertFutureCallTo((uint256,uint256,address,bytes))":"921a62e2","assertFutureCallTo((uint256,uint256,address,bytes),uint256)":"801e0f42","assertNextCallTo((uint256,uint256,address,bytes))":"b2102523","backrunBlocker()":"5dccf4c4","callbreaker()":"f320d0a9","callbreakerAddress()":"cd005347","disbursalContract()":"ceb527bc","disburseKITNs()":"c6a02b7d","frontrunBlocker()":"b5ba4362","getCurrentExecutingPair()":"1db72bc9","getEthSignedMessageHash(bytes)":"f9aea466","getSampleDisbursalData()":"21a88409","owner()":"8da5cb5b","renounceOwnership()":"715018a6","setContinue(bool)":"06da6b6d","shouldContinue()":"aeec0501","soloExecuteBlocker()":"5075e4b2","transferOwnership(address)":"f2fde38b","verifySignature(bytes)":"f80af984"},"storageLayout":{"storage":[{"astId":66018,"contract":"test/examples/MEVOracle/KITNDisburmentScheduler.sol:KITNDisburmentScheduler","label":"callbreaker","offset":0,"slot":"0","type":"t_contract(CallBreaker)65700"},{"astId":49888,"contract":"test/examples/MEVOracle/KITNDisburmentScheduler.sol:KITNDisburmentScheduler","label":"_owner","offset":0,"slot":"1","type":"t_address"},{"astId":78182,"contract":"test/examples/MEVOracle/KITNDisburmentScheduler.sol:KITNDisburmentScheduler","label":"shouldContinue","offset":20,"slot":"1","type":"t_bool"},{"astId":78184,"contract":"test/examples/MEVOracle/KITNDisburmentScheduler.sol:KITNDisburmentScheduler","label":"callbreakerAddress","offset":0,"slot":"2","type":"t_address"},{"astId":78187,"contract":"test/examples/MEVOracle/KITNDisburmentScheduler.sol:KITNDisburmentScheduler","label":"disbursalContract","offset":0,"slot":"3","type":"t_contract(IDisbursalContract)78168"}],"types":{"t_address":{"encoding":"inplace","label":"address","numberOfBytes":"20"},"t_bool":{"encoding":"inplace","label":"bool","numberOfBytes":"1"},"t_contract(CallBreaker)65700":{"encoding":"inplace","label":"contract CallBreaker","numberOfBytes":"20"},"t_contract(IDisbursalContract)78168":{"encoding":"inplace","label":"contract IDisbursalContract","numberOfBytes":"20"}}},"id":120}